:020000040800F2
:1000000058040020D90100087F1200087B12000864
:100010007D12000809080008B91600080000000059
:10002000000000000000000000000000A512000811
:100030000B08000800000000A1120008A712000829
:10004000F3010008F3010008F3010008F3010008C0
:10005000F3010008A3120008F3010008F3010008EF
:10006000F3010008F3010008F3010008F3010008A0
:10007000F3010008F3010008F3010008F301000890
:10008000F3010008F3010008F3010008F301000880
:10009000F3010008F3010008F3010008F301000870
:1000A000F3010008F3010008F3010008F301000860
:1000B000F3010008F3010008F3010008F301000850
:1000C000F3010008F3010008F3010008F301000840
:1000D000F3010008F3010008F3010008F301000830
:1000E000F3010008F3010008F3010008F301000820
:1000F000F3010008F3010008F3010008F301000810
:10010000F3010008F3010008F3010008F3010008FF
:10011000F3010008F3010008F3010008F3010008EF
:10012000F3010008F3010008F3010008F3010008DF
:10013000F30100080000000000000000F3010008C7
:10014000F3010008F3010008F3010008F3010008BF
:10015000F3010008F3010008F3010008F3010008AF
:10016000F3010008F3010008F3010008F30100089F
:10017000F3010008F3010008F3010008000000008B
:1001800000000000F3010008000000000000000073
:10019000F30100080000000000000000F301000867
:1001A000000000000000000000000000F301000853
:1001B000F3010008F3010008F3010008F30100084F
:1001C000F3010008DFF80CD000F00CFB00480047FA
:1001D000C91F000858040020064880470648004709
:1001E000FEE7FEE7FEE7FEE7FEE7FEE7FEE7FEE7E7
:1001F000FEE7FEE755130008C50100082DE9F05F92
:100200000546002092469B46884606468146402485
:100210001BE0284641464746224600F01BF953465C
:100220005A46C01A914110D311461846224600F092
:1002300002F92D1A67EB01084F46224601200021E2
:1002400000F0F9F817EB00094E41201EA4F101045B
:10025000DFDC484631462A464346BDE8F09F2DE99B
:10026000FE4F804681EA0300C00F0C46009021F04B
:10027000004123F00045B8EB0200A94105D24046F9
:10028000214690461C460B46024623F00040104390
:1002900047D0270DC7F30A00C3F30A510290401A52
:1002A000019040286BDAC3F3130040F4801B0098E0
:1002B000924620B10023D2EB030A63EB0B0B0198AB
:1002C0005946C0F14002504600F0B5F806460D46CA
:1002D00050465946019A00F0CDF810EB08006141F4
:1002E000002487EA115284EAE7731A4340D0009A47
:1002F00062B3019A012A4FEA075215DC001B61EB39
:1003000002014FF0004202EA0752CDE90042001C10
:1003100041F5801132462B4600F004F903B0BDE8E8
:10032000F08F40462146F9E7001B61EB0201001CFB
:1003300041F5801300185B412018A2F5001747EB28
:10034000030140EAD570B6196D4111E06D084FEA1E
:10035000360645EAC0754FEA0752001B61EB020101
:10036000001C41F5801149084FEA30000019514145
:1003700032462B4603B0BDE8F04F00F0C4B80098F9
:10038000012240000023D0EB020263EBE0730098EF
:1003900021464FEAE074B8EB000061EB0401E9E7A5
:1003A00083F000435BE781F0004158E700F0004232
:1003B00030F000400AD0C10D01F56071C0F31600A5
:1003C00042EA0151C208400711437047002001462C
:1003D000704701F0004330B421F0004150EA0102BF
:1003E00006D00A0DA2F56072C1F31301002A02DCE7
:1003F00030BC00207047440F44EAC104C100E0183B
:1004000030BC00EBC25000F047B830B50B46014697
:1004100000202022012409E021FA02F59D4205D3A3
:1004200003FA02F5491B04FA02F52844151EA2F14D
:100430000102F1DC30BD202A04DB203A00FA02F18F
:10044000002070479140C2F1200320FA03F31943C2
:1004500090407047202A04DB203A21FA02F0002164
:10046000704721FA02F3D040C2F1200291400843C4
:1004700019467047202A06DBCB17203A41FA02F0D2
:1004800043EAE07306E041FA02F3D040C2F12002F1
:1004900091400843194670470029A8BF7047401C87
:1004A000490008BF20F00100704710B4B0FA80FC8A
:1004B00000FA0CF050EA010404BF10BC704749B1C7
:1004C000CCF1200421FA04F411FA0CF118BF012137
:1004D00021430843A3EB0C01CB1D4FEA00614FEA17
:1004E000102042BF002010BC704700EBC3501044E6
:1004F0000029A4BF10BC7047401C490008BF20F071
:10050000010010BC704710B5141E73F1000408DA26
:10051000401C41F1000192185B411A4301D120F0C7
:10052000010010BD2DE9F04D92469B4611B1B1FA84
:1005300081F202E0B0FA80F220329046FFF77BFFB2
:1005400004460F4640EA0A0041EA0B0153465A4668
:10055000084313D0114653EA010019D0C8F14002F4
:100560005046FFF777FF05460E465046594642462D
:10057000FFF761FF084305D0012004E0204639461B
:10058000BDE8F08D0020054346EAE0762C43374372
:100590000A986305E40AA0EB08000022FD0A44EA79
:1005A00047540A3002D500200146E9E70105101939
:1005B0006941DDE9084500196941BDE8F04DA2E750
:1005C0002DE9FE4F81EA030404F0004421F00041CC
:1005D00000944FF0000B23F0004350EA01045ED07A
:1005E00052EA03045BD0C3F30A54C1F30A552C4406
:1005F000A4F2F3340194A0FB0254C1F3130141F4BB
:100600008011C3F3130343F4801301FB024400FB86
:10061000034E840A970A44EA815447EA8357A4FBAD
:10062000076802958D0A05FB07854FEA932C04FBAA
:100630000C542705029D4FEA065847EA1637B5EBDA
:1006400008056EEB070C870E920E47EA811742EA07
:100650008312A7FB0201B6EB0B0164EB00042B0D28
:1006600043EA0C335E1844EB1C50DA465146E7FB74
:100670000201C5F313044FEA0B3343EA14534FEA64
:100680000432019C43EA0603A4F10C040294009C8A
:10069000CDE900B4FFF746FF03B0BDE8F08F0020BE
:1006A0000146F9E72DE9F04D81EA030404F0004B1F
:1006B00021F0004514464FF0000A23F0004150EAB3
:1006C000050220D054EA01021DD0C5F30A570246A4
:1006D000C5F31303C1F31300C1F30A5640F48015A8
:1006E00043F48013A7EB0608101BD64608F2FD382A
:1006F00073EB050002D308F1010801E092185B4199
:10070000B8F1000F03DA00200146BDE8F08D0020AB
:100710004FF48011064684460EE0171B73EB050765
:1007200005D3121B63EB050306434CEA010C490891
:100730004FEA300092185B4150EA0107EDD152EACE
:10074000030012D082EA040083EA0501084305D0C1
:10075000101BAB4106D20122002306E000224FF01D
:10076000004302E06FF0010253101AEB06004CEB5D
:10077000085110EB0A0041EB0B01BDE8F04DFFF70B
:10078000C2BEC1F30A52C1F3130140F2FF3341F478
:1007900080119A4202DA00200146704740F233434A
:1007A0009A42A2F2334202DC5242FFF753BEFFF7F5
:1007B00042BE000030B5041E71F1000404DB4FF0AE
:1007C0000044404264EB0101141E73F1000405DB98
:1007D0001C464FF00043524263EB0403994208BFAA
:1007E000904230BD064C074D06E0E06840F0010342
:1007F00094E8070098471034AC42F6D3FFF7E6FCC4
:10080000BC200008DC200008FEE7704770B50446F5
:1008100000F0E0F80546601C02D00448007804446B
:1008200000F0D8F8401BA042FAD370BD04000020AD
:100830002DE9F84FDFF874B100224FF001084FF0B6
:10084000030A4FF00F090BF1040E00BF0B6808FA02
:1008500002F42340A3426ED14D68022D01D0122D27
:100860000ED1D50800EB850CDCF820505607F70EAA
:1008700009FA07F6B5430E69BE402E43CCF8206056
:10088000066855000F790AFA05FC07F0030726EA07
:100890000C06AF40374307604E68012E05D0022E8C
:1008A00003D0112E01D0122E0ED18668CF6826EA11
:1008B0000C06AF40374387604668A6430C79C4F303
:1008C0000014944034434460C4688E6824EA0C04E5
:1008D000AE402643C6604C68E40060D5344C2568C1
:1008E00045F480452560246822F0030504F4804423
:1008F0000094304C2E19D6F8084895072F0F09FAA6
:1009000007F5AC432C4DA84201D100251FE02B4D2B
:10091000A84201D101251AE0294DA84201D10225A2
:1009200015E0284DA84201D1032510E0264DA8422C
:1009300002D104250BE032E0244DA84201D1052567
:1009400005E0234DA84201D1062500E00725BD4062
:100950002543C6F80858DBF800405D464E689C43C6
:10096000F60300D51C432C60DEF8004075464E6847
:100970009C43B60300D51C432C600C4D08352C68F5
:100980004E689C43F60200D51C432C60074D0C3585
:100990002C684E689C43B60200D51C432C60521C48
:1009A000102AFFF453AFBDE8F88F0000003C01406F
:1009B0004438024000300140000002400004024080
:1009C00000080240000C02400010024000140240E7
:1009D00000180240014880687047000004000020B1
:1009E0000248816802781144816070470400002049
:1009F0000B4810B5016841F400710160016841F4D1
:100A000080610160016841F480710160032000F0A1
:100A10009FF8002000F006F800F024F8002010BD38
:100A2000003C024070B50D4D04464FF47A712878B1
:100A3000B1FBF0F00A490968B1FBF0F000F051FB9E
:100A400048B9102C07D200222146501E00F060F851
:100A500000206C6070BD012070BD0000040000200B
:100A600010000020234808B5016841F4804101606E
:100A7000006800F4804000901E48001F016841F0AB
:100A800080510160006800F080500090072000F065
:100A90005FF8002211466FF00B0000F039F80022D9
:100AA00011466FF00A0000F033F8002211466FF093
:100AB000090000F02DF800221146501F00F028F820
:100AC00000221146101F00F023F800221146901E4C
:100AD00000F01EF800221146501E00F019F8002206
:100AE0001146052000F014F8BDE80840052000F08C
:100AF00003B800004438024000F01F020121914079
:100B00004009800000F1E020C0F8001170470000AB
:100B1000F0B40E4B1B680C46C3F30223C3F1070568
:100B2000042D00D90425191D072901D2002300E056
:100B3000DB1E012606FA05F1491E214099409E4020
:100B4000761E16403143F0BC00F09ABB0CED00E07D
:100B5000064900F0070208684FF6FF03184040EA14
:100B60000220034A10430860704700000CED00E0CB
:100B70000000FA052DE9F0470E46050065D0DFF8C4
:100B80001481D8F80000F7B200F00F00B04207D28D
:100B900088F80070D8F8000000F00F00B04254D17F
:100BA00028683D4C810712D5400703D5206840F4E2
:100BB000E05020602878000703D5206840F46040AA
:100BC00020602068A96820F0F000084320602878A1
:100BD000C0072DD0304968680839012812D0022892
:100BE00013D0032811D00968890700292DDA21685C
:100BF00021F0030101432160FFF7ECFE814641F241
:100C0000883A0EE009688903EFE709688901ECE793
:100C1000FFF7E0FEA0EB0901514502D90320BDE832
:100C2000F0872068696800F00C00B0EB810FEFD10D
:100C3000D8F80010404601F00F01B14207D9077003
:100C4000006800F00F00B04201D00120E7E72878EB
:100C5000400705D52068E96820F4E050084320608B
:100C60002878000706D52068296920F4604040EA0A
:100C7000C100206000F03CF82168084AC1F303116C
:100C8000515CC840064908600020FFF7CBFE0020F9
:100C9000C5E70000003C024008380240A4200008DC
:100CA000100000200148006870470000100000207C
:100CB0000448054900680968044AC1F38221515C6F
:100CC000C84070471000002008380240B4200008D7
:100CD0000448054900680968044AC1F34231515C7F
:100CE000C84070471000002008380240B4200008B7
:100CF000224810B5006810F00C02214815D04110B0
:100D0000042A11D01D4C241F082A0FD00C2A0CD104
:100D10002268236802F03F025B0221D52068C0F3FD
:100D20008810A0FB010120E0084610BD226823685E
:100D300002F03F025B0205D52068C0F38810A0FBDB
:100D4000010104E02168C1F38811A1FB0001002327
:100D5000FFF754FA2168C1F30141491C49000AE038
:100D60002168C1F38811A1FB00010023FFF746FAB7
:100D70002168C1F30271B0FBF1F010BD08380240E8
:100D80000024F4002DE9F84F0546DFF828B3007879
:100D9000ABF10407C007A7F1040451D0DBF8001041
:100DA0005846C1F3810101290FD00168C1F38101C7
:100DB000022902D13968490207D40068C0F38100D2
:100DC000032809D13868400206D52068800337D54A
:100DD0006868002872D033E06868B0F5803F10D0B2
:100DE000B0F5A02F206810D020F48030206020685B
:100DF00020F4802020606868A8B1FFF7EBFD06466C
:100E00000DE0206840F48030F4E740F4802020605A
:100E1000F7E700BFFFF7DEFD801B642878D8206865
:100E20008003F7D50CE0FFF7D5FD064605E000BFCF
:100E3000FFF7D0FD801B6428F0D820688003F7D42A
:100E40002878DFF8749280074FF0000A46D5DBF867
:100E50000010584611F00C0F0FD00168C1F381014A
:100E6000022902D13968490207D50068C0F3810020
:100E7000032809D13868400206D42068800715D5B8
:100E8000E86801281AD111E0E868C0B10120C9F86A
:100E90000000FFF79FFD064605E000BFFFF79AFD43
:100EA000801B0228BAD820688007F7D520682969F6
:100EB00020F0F80040EAC10020600FE0F7E0C9F838
:100EC00000A0FFF787FD064605E000BFFFF782FDA3
:100ED000801B02281CD820688007F7D428780007D8
:100EE00027D5DFF8D0817548696908F16C0881B1B0
:100EF00001210160FFF76EFD064604E0FFF76AFD81
:100F0000801B022804D8D8F800008007F6D510E02E
:100F100089E0C0F800A0FFF75DFD064605E000BFD0
:100F2000FFF758FD801B02287DD8D8F80000800705
:100F3000F6D42878400769D55E484FF0000838306D
:100F40000068C0000BD45B483830016841F0805124
:100F5000016000684FF0010800F080500090584E8A
:100F60003068C00511D4306840F480703060FFF7FD
:100F700031FD009006E000BFFFF72CFD0099401AFC
:100F8000022850D83068C005F6D54A4EA8686836A1
:100F900001280FD00528306810D020F00100306003
:100FA000306820F004003060A868B8B1FFF712FD87
:100FB00000900FE0306840F00100F4E740F00400DA
:100FC0003060F7E7FFF706FD0099411A41F28830DB
:100FD000814264D830688007F4D50EE0FFF7FAFC50
:100FE000009007E0FFF7F6FC0099411A41F28830C3
:100FF000814254D830688007F4D4B8F1000F05D08E
:101000002C483830016821F080510160A869A8B3EC
:10101000DBF80010C1F38101022948D00228C9F889
:1010200060A005D000E03AE0FFF7D4FC054639E0C7
:10103000FFF7D0FC064604E0FFF7CCFC801B02283B
:101040002DD820688001F7D4F5E907010843E96845
:101050001C4A490802EB0141AA6841EA821108438F
:10106000297C40EA0160297D40EA01703860012056
:10107000C9F86000FFF7AEFC054606E015E000BFCA
:10108000FFF7A8FC401B022809D820688001F7D58B
:101090000BE000BFFFF79EFC401B022802D9032093
:1010A000BDE8F88F20688001F4D40020F8E7012023
:1010B000F6E700000838024000004742800E474231
:1010C000007000400000FFFF4FF0E0210428086995
:1010D00003D020F004000861704740F00400FAE7F4
:1010E000704710B5401EB0F1807F01D3012010BDC4
:1010F0004FF0E02460610F21601700F0C1F800207C
:10110000A06107202061002010BD10B5FFF7E8FFA7
:1011100010BD70B5040004D094F83900002510B15A
:1011200006E0012070BD84F83850204600F022F817
:10113000242084F839002068C16821F40051C1607E
:10114000204600F031F92068016921F490410161E5
:101150002068416921F02A0141612068C16841F499
:101160000051C160E563202084F8390084F83A001A
:10117000002070BD00B500680E4987B0884216D1C6
:101180000D48016841F4003101600068694600F4CF
:10119000003005900C200090022001900120029068
:1011A00003200390072004900448FFF741FB07B099
:1011B00000BD0000004400404038024000000240F2
:1011C0002DE9F843044690F839001F4616460D46AF
:1011D000202850D1A5B19EB194F8380001284AD0FA
:1011E000012084F838004FF00008C4F83C8021202A
:1011F00084F83900FFF7EEFBA6848146E68426E0FA
:101200000120BDE8F883E08C401EE084A0684B46D6
:10121000B0F5805F4FF000024FF08001204600974C
:1012200003D000F017FAE8B90DE000F013FAC8B9DE
:1012300028882168C0F308004860206908B16D1C47
:1012400005E0AD1C03E0216815F8010B4860E08C57
:101250000028D8D14B46002240212046009700F0BC
:10126000F9F908B10320CCE7202084F8390084F88C
:1012700038800020C5E70220C3E7FEE7FEE770479D
:101280000907090E002806DA00F00F0000F1E0203F
:1012900080F8141D704700F1E02080F800147047BA
:1012A00070477047704710B5FFF79AFBBDE81040D4
:1012B000FFF72BBF30B5254893B00025016841F0FA
:1012C00080510160006800F0805012902048016851
:1012D00021F4404141F4804101600068022400F49F
:1012E0004040129001200390102000940694049036
:1012F000CDE907504FF4A87009900420CDE90A0405
:1013000068460C94FFF73EFD00B1FEE70DA90F20E3
:1013100081E831004FF48050CDE9100502210DA87D
:10132000FFF728FC00B1FEE7FFF7BCFC4FF47A7131
:10133000B0FBF1F0FFF7D5FE0420FFF7C5FE002259
:101340001146501EFFF7E4FB13B030BD4038024099
:10135000007000401048016841F4700101600F48BE
:10136000016841F0010101600C4A0021083211605E
:1013700002680B4B1A400260031D0A4A1A60026899
:1013800022F48022026005480C30016002495806B0
:10139000803908607047000088ED00E000380240A6
:1013A000FFFFF6FE103000242DE9F04104460068EE
:1013B000016921F44052E168114301612168C86864
:1013C00049F20C6290432369A268E5691A43636994
:1013D0002B431A430243CA602168486920F44072D3
:1013E000A06910434861E1696425B1F5004F974851
:1013F000974A21684FF032083FD0914201D0814294
:101400007CD1FFF765FC00EBC00101EB00106168C7
:101410008900B0FBF1F6FFF75BFC00EBC00101EBCC
:10142000001061688900B0FBF1F0B0FBF5F06FF0DF
:101430001801484306EB800108EB0110B0FBF5F002
:1014400000F0F006FFF744FC00EBC00101EB0010D8
:1014500061688900B0FBF1F0B0FBF5F006EB001617
:10146000FFF736FC00EBC00101EB0010616889005A
:10147000B0FBF1F7FFF72CFCD2E0914201D08142A2
:101480003DD1FFF725FC00EBC00101EB00106168C6
:101490004900B0FBF1F0B0FBF5F00601FFF718FCD6
:1014A00000EBC00101EB001061684900B0FBF1F7EF
:1014B000FFF70EFC00EBC00101EB00106168490072
:1014C000B0FBF1F0B0FBF5F06FF01801484307EB0B
:1014D000800108EBC100B0FBF5F000F0F80006EB6E
:1014E0004006FFF7F5FB00EBC00101EB001061685F
:1014F0004900B0FBF1F7FFF7EBFB3CE055E0FFF7ED
:10150000D7FB00EBC00101EB001061684900B0FBA4
:10151000F1F0B0FBF5F00601FFF7CAFB00EBC001EC
:1015200001EB001061684900B0FBF1F7FFF7C0FB69
:1015300000EBC00101EB001061684900B0FBF1F065
:10154000B0FBF5F06FF01801484307EB800108EBA2
:10155000C100B0FBF5F000F0F80006EB4006FFF725
:10156000A7FB00EBC00101EB001061684900B0FB74
:10157000F1F7FFF79DFB00EBC00101EB0010616884
:101580004900B0FBF1F0B0FBF5F06FF018014843F3
:1015900007EB800108EBC100B0FBF5F000F007009D
:1015A000216830448860BDE8F081FFF781FB00EBE3
:1015B000C00101EB001061688900B0FBF1F6FFF794
:1015C00077FB00EBC00101EB001061688900B0FB04
:1015D000F1F0B0FBF5F06FF01801484306EB800125
:1015E00008EB0110B0FBF5F000F0F006FFF760FB30
:1015F00000EBC00101EB001061688900B0FBF1F065
:10160000B0FBF5F006EB0016FFF752FB00EBC00154
:1016100001EB001061688900B0FBF1F7FFF748FBB0
:1016200000EBC00101EB001061688900B0FBF1F034
:10163000B0FBF5F06FF01801484307EB800108EBB1
:101640000110B0FBF5F000F00F00A9E70014014015
:10165000001001402DE9F041984617460E46044619
:10166000069D1DE0681C1BD02DB1FFF7B3F9A0EB60
:101670000800A84214D92068C16821F4D071C16063
:101680002068416921F001014161202084F839007E
:1016900084F83A00002084F838000320BDE8F08187
:1016A0002068006836EA000004D00020B842D9D093
:1016B0000020F3E70120F9E7FEE700000FB4054B37
:1016C00010B503A9044A029800F0DAF810BC5DF8DE
:1016D00014FB0000B11F00081400002002E008C83D
:1016E000121F08C1002AFAD170477047002001E09C
:1016F00001C1121F002AFBD1704700002DE9FF5FD6
:1017000082B00021DDE90430020DDDF840B0034372
:1017100018D044F61050A2F2FF324243151411982B
:1017200001281FD0A5EB0B00401C5FEA000A4FF018
:1017300000064E4FDFF83891B046504615D5CAF135
:10174000000413E0119801244AA3012801D16FEA93
:101750000B010298119AC0E90031C0E9024206B0BB
:10176000BDE8F09FCBF10000DFE704460021404ACE
:10177000491842EB0450CDE9001012E0E00707D011
:1017800032463B4640464946FEF71AFF80468946A8
:1017900032463B4610461946FEF712FF06460F46F4
:1017A0006410002CEAD1DDE90401DDE90023BAF17F
:1017B000000F06DAFEF704FF42464B46FEF700FF35
:1017C00005E0FEF76FFF42464B46FEF76BFF04460F
:1017D0000E460022284BFEF7EDFF03D84FF0FF30F6
:1017E000014607E00022254B20463146FEF737FD33
:1017F000FEF7C7FF102409E0002C0ADB0A220023B1
:10180000FEF7FCFC039B30321A55641E50EA0102BD
:10181000F2D1641C039AC4F111031444119A012AF1
:1018200003D0012208430DD10AE0084304D0002070
:101830004FF0110B119072E7A3EB0B056D1E0DE03D
:101840005B4504DD4FF0000205F1010504E003DA19
:101850004FF00002A5F10105002AECD00298119981
:10186000C0E90231C0E9004579E7000000001440FA
:101870000000F03F300000000000F0430000E03FB7
:101880002DE9FF4F95B09B468946064600250FE29D
:10189000252877D100242746F84A0121059400E045
:1018A000044316F8013F203B01FA03F01042F7D140
:1018B00030782A2811D06FF02F033078A0F1300251
:1018C000092A16D8059A44F0020402EB820203EBBF
:1018D00042021044761C0590EFE759F8042B05925C
:1018E000002A03DA504244F40054059044F0020404
:1018F000761C30782E2816D116F8010F44F0040417
:101900002A280DD06FF02F023078A0F13003092B78
:1019100009D807EB870302EB4303C718761CF3E7EC
:1019200059F8047B761C30786C280FD006DC4C28E4
:1019300017D068280DD06A2814D104E0742810D07C
:101940007A280FD10DE044F400140AE044F4801426
:1019500001E044F440147278824202D104F580140C
:10196000761C761C307866280BD013DC582877D08C
:1019700009DC002875D04528F6D04628F4D0472841
:101980001AD19DE118E0632835D0642879D0652804
:1019900012D195E1702873D008DC6728F1D069284E
:1019A0006FD06E280DD06F2806D1B5E073282CD0EB
:1019B000752875D0782874D05A46179990476D1CB1
:1019C00075E1C4F30250022809D003280DD0D9F8DC
:1019D000001004280DD00D6009F1040967E1D9F861
:1019E0000010EA17C1E90052F6E7D9F800100D809F
:1019F000F2E70D70F0E719F8041B8DF800100020D5
:101A00008DF80100EA46012003E059F804AB4FF0DD
:101A1000FF3061074FF0000102D40DE008F1010131
:101A20008846B9420FDA8045F8DB1AF80810002919
:101A3000F4D108E008F1010188468142FADB1AF886
:101A400008100029F6D105985B46A0EB080721464F
:101A50003846179A00F094FA284400EB080507E08E
:101A60004DE029E10DE01AF8010B5A46179990470D
:101A7000B8F10108F7D25B4621463846179A13E1C0
:101A800042E00A220092C4F302524FF0000A022AF6
:101A900008D059F804CB032A4FEAEC710AD00DE0C4
:101AA00029E02AE009F1070121F00702F2E802C16A
:101AB000914609E00FFA8CFC4FEAEC71042A03D13D
:101AC0004FFA8CFC4FEAEC71002907DA0A46002134
:101AD000DCF1000C61EB02012D2202E0220504D5AD
:101AE0002B228DF80420012203E0E20701D02022FE
:101AF000F7E7904659E00A2102E010220DE010219C
:101B00004FF0000A00910BE010224FF0000A44F061
:101B100004040827009203E008224FF0000A009214
:101B2000C4F30252022A05D059F804CB0021032A3B
:101B300008D009E009F1070121F00702F2E802C12B
:101B4000914605E01FFA8CFC042A01D10CF0FF0C31
:101B50004FF00008220728D5702806D0009B83F09C
:101B6000100353EA0A0305D00EE040228DF804204A
:101B7000012208E05CEA010206D030228DF8042040
:101B80008DF8050002229046009B83F0080353EA7B
:101B90000A030AD15CEA010201D1620705D53022AD
:101BA0008DF804204FF001087F1E582804D034A07F
:101BB00003900EA802900DE036A0F9E75346604668
:101BC000009AFEF71BFB84460398825C0298401E35
:101BD000029002705CEA0100F0D1029806A9081A8E
:101BE00000F1200A600702D524F4803400E00127C8
:101BF000574502DDA7EB0A0000E0002000EB0A01D8
:101C0000009005984144401A0590E00306D45B46D5
:101C10002146179A059800F0B3F90544002706E01D
:101C200001A85A46C05D179990476D1C7F1C474517
:101C3000F6DBE0030CD55B462146179A059800F0C9
:101C40009FF9054404E030205A46179990476D1CCF
:101C50000099481E00900029F5DC08E002980299DE
:101C60005A460078491C0291179990476D1CBAF1A9
:101C70000001AAF1010AF1DC65E100000928010078
:101C800030313233343536373839616263646566F2
:101C900000000000303132333435363738394142B4
:101CA000434445460000000000F058F90544761C06
:101CB000307800287FF4ECAD19B02846BDE8F08FED
:101CC000620700D4062709F1070222F0070CFCE89E
:101CD0000223E14603F000485FEA080C02D00FF24D
:101CE000702C0DE05FEA045C02D50FF2682C07E06F
:101CF0005FEAC47C02D00FF2602C01E0AFF2700CFE
:101D00004FF0FF3823F00043CDF850C065280CD0C9
:101D100006DC452809D046281DD047283DD13DE0A6
:101D2000662818D067287ED138E00021112F01DB0A
:101D3000112000E0781CCDE9000106A90EA8FFF7EC
:101D4000DDFCDDE90F010E9A03910021009207F1FD
:101D5000010A04914DE04FF000400097CDE90110D9
:101D600006A90EA8FFF7CAFCDDE90F0203920E9B3D
:101D700011990022DDF80CA00093049211B9791C8E
:101D800000EB010AB7EB0A0004D4C0F1FF3007F101
:101D9000010A0490AAEB0700019044E0012F00DA49
:101DA00001270021112F01DD112000E03846CDE987
:101DB000000106A90EA8FFF7A1FCDDE90F010E9AAC
:101DC0000391002104910092BA4621070CD4039993
:101DD000514500DA8A46BAF1010F05DD009AAAF1F1
:101DE0000101515C302908D0B84202DA10F1040F29
:101DF00006DA0121CDE9011015E0AAF10101E9E7B8
:101E0000002805DC049901440491AAEB000102E0DA
:101E1000411C514500DD8A460499401A401C01903E
:101E20004FF000400290200704D40198504501DB98
:101E3000CDF8048000208DF84F0002980DF14F0777
:101E4000B0F1004F25D02B200E9002984FF00208E1
:101E500000280CDA404202902D200E9007E00A2163
:101E60000298FEF7D2FA3031029007F8011DB8F15E
:101E70000001A8F10108F2DC02980028EFD1791ED8
:101E80000E980870307800F0200040F0450007F808
:101E9000020D12A8C01B00F107081498007800B1C9
:101EA000012000EB0A01019801EBE0710598414423
:101EB000401A401E0590E00306D45B462146179A5F
:101EC000059800F05DF805441498007818B15A465A
:101ED000179990476D1CE00324D55B462146179A5D
:101EE000059800F04DF805441CE00498002807DB35
:101EF000DDE90301884203DD0098405C179901E0A9
:101F0000179930205A469047049805F10105401C66
:101F100004900198401E019004D12E205A46179932
:101F200090476D1CBAF10001AAF1010ADDDC05E061
:101F300017F8010B5A46179990476D1CB8F100012C
:101F4000A8F10108F4DC5B462146179A0598ABE638
:101F50002D0000002B000000200000002DE9F041C2
:101F6000044600251E461746880404D405E0394679
:101F70002020B0476D1C641EF9D52846BDE8F081CD
:101F80002DE9F041044600251E469046C80301D5C0
:101F9000302700E02027880404D505E04146384674
:101FA000B0476D1C641EF9D52846BDE8F0810000DD
:101FB00013B54FF6FF73012269460248FFF700F997
:101FC00000981CBD180000202DED028B82B0FEF79A
:101FD0000FFDFFF76FF921480021026842F08002EF
:101FE0000260026802F080020092026842F0010280
:101FF000026000681A4A00F001000090194802606F
:102000004FF41652C0E901210C22C160C0E904124C
:102010008161C161FFF77DF800B1FEE712A0FFF713
:102020004DFB184C9FED188B4FF4FA752068FEF7A6
:10203000BDF941EC100B16A053EC102BFFF73EFB43
:102040002068FEF7B3F953EC182BFEF708F9FEF7FA
:10205000C0F920602846FEF7D9FBE7E73038024098
:1020600000440040180000200A0D2D2D2D2D2D5369
:1020700074617274696E672E2E2E2D2D2D2D2D0AF2
:102080000D000000000000209E842DD1B41FC23F2F
:10209000666C6F61742076616C75653A2025660AFE
:1020A0000D00000000000000000000000102030419
:1020B000060708090000000001020304DC200008F4
:1020C0000000002018000000DC160008F4200008C2
:1020D0001800002040040000EC16000800004040FA
:1020E0000100000010000000000000000024F400C7
:0420F00000000000EC
:04000005080001C529
:00000001FF
